{
    "address": "0xe7f1725E7734CE288F8367e1Bb143E90bb3F0512",
    "abi": [
        {
            "inputs": [
                {
                    "internalType": "address",
                    "name": "titleAddress",
                    "type": "address"
                },
                {
                    "internalType": "uint256",
                    "name": "tokenId",
                    "type": "uint256"
                }
            ],
            "name": "AlreadyListed",
            "type": "error"
        },
        {
            "inputs": [],
            "name": "NoProceeds",
            "type": "error"
        },
        {
            "inputs": [],
            "name": "NotApprovedForSystem",
            "type": "error"
        },
        {
            "inputs": [
                {
                    "internalType": "address",
                    "name": "titleAddress",
                    "type": "address"
                },
                {
                    "internalType": "uint256",
                    "name": "tokenId",
                    "type": "uint256"
                }
            ],
            "name": "NotListed",
            "type": "error"
        },
        {
            "inputs": [],
            "name": "NotOwner",
            "type": "error"
        },
        {
            "inputs": [],
            "name": "PriceMustBeAboveZero",
            "type": "error"
        },
        {
            "inputs": [
                {
                    "internalType": "address",
                    "name": "titleAddress",
                    "type": "address"
                },
                {
                    "internalType": "uint256",
                    "name": "tokenId",
                    "type": "uint256"
                },
                {
                    "internalType": "uint256",
                    "name": "price",
                    "type": "uint256"
                }
            ],
            "name": "PriceNotMet",
            "type": "error"
        },
        {
            "inputs": [],
            "name": "TransferFailed",
            "type": "error"
        },
        {
            "anonymous": false,
            "inputs": [
                {
                    "indexed": true,
                    "internalType": "address",
                    "name": "buyer",
                    "type": "address"
                },
                {
                    "indexed": true,
                    "internalType": "address",
                    "name": "titleAddress",
                    "type": "address"
                },
                {
                    "indexed": true,
                    "internalType": "uint256",
                    "name": "titleId",
                    "type": "uint256"
                },
                {
                    "indexed": false,
                    "internalType": "uint256",
                    "name": "price",
                    "type": "uint256"
                }
            ],
            "name": "TitleBought",
            "type": "event"
        },
        {
            "anonymous": false,
            "inputs": [
                {
                    "indexed": true,
                    "internalType": "address",
                    "name": "seller",
                    "type": "address"
                },
                {
                    "indexed": true,
                    "internalType": "address",
                    "name": "titleAddress",
                    "type": "address"
                },
                {
                    "indexed": true,
                    "internalType": "uint256",
                    "name": "tokenId",
                    "type": "uint256"
                }
            ],
            "name": "TitleCanceled",
            "type": "event"
        },
        {
            "anonymous": false,
            "inputs": [
                {
                    "indexed": true,
                    "internalType": "address",
                    "name": "seller",
                    "type": "address"
                },
                {
                    "indexed": true,
                    "internalType": "address",
                    "name": "titleAddress",
                    "type": "address"
                },
                {
                    "indexed": true,
                    "internalType": "uint256",
                    "name": "tokenId",
                    "type": "uint256"
                },
                {
                    "indexed": false,
                    "internalType": "uint256",
                    "name": "price",
                    "type": "uint256"
                }
            ],
            "name": "TitleListed",
            "type": "event"
        },
        {
            "inputs": [
                {
                    "internalType": "address",
                    "name": "titleAddress",
                    "type": "address"
                },
                {
                    "internalType": "uint256",
                    "name": "tokenId",
                    "type": "uint256"
                }
            ],
            "name": "buyTitle",
            "outputs": [],
            "stateMutability": "payable",
            "type": "function"
        },
        {
            "inputs": [
                {
                    "internalType": "address",
                    "name": "titleAddress",
                    "type": "address"
                },
                {
                    "internalType": "uint256",
                    "name": "tokenId",
                    "type": "uint256"
                }
            ],
            "name": "cancelListing",
            "outputs": [],
            "stateMutability": "nonpayable",
            "type": "function"
        },
        {
            "inputs": [
                {
                    "internalType": "address",
                    "name": "titleAddress",
                    "type": "address"
                },
                {
                    "internalType": "uint256",
                    "name": "tokenId",
                    "type": "uint256"
                }
            ],
            "name": "getListing",
            "outputs": [
                {
                    "components": [
                        {
                            "internalType": "uint256",
                            "name": "price",
                            "type": "uint256"
                        },
                        {
                            "internalType": "address",
                            "name": "seller",
                            "type": "address"
                        }
                    ],
                    "internalType": "struct TitleRegistry.Listing",
                    "name": "",
                    "type": "tuple"
                }
            ],
            "stateMutability": "view",
            "type": "function"
        },
        {
            "inputs": [
                {
                    "internalType": "address",
                    "name": "seller",
                    "type": "address"
                }
            ],
            "name": "getProceeds",
            "outputs": [
                {
                    "internalType": "uint256",
                    "name": "",
                    "type": "uint256"
                }
            ],
            "stateMutability": "view",
            "type": "function"
        },
        {
            "inputs": [
                {
                    "internalType": "address",
                    "name": "titleAddress",
                    "type": "address"
                },
                {
                    "internalType": "uint256",
                    "name": "tokenId",
                    "type": "uint256"
                },
                {
                    "internalType": "uint256",
                    "name": "price",
                    "type": "uint256"
                }
            ],
            "name": "listTitle",
            "outputs": [],
            "stateMutability": "nonpayable",
            "type": "function"
        },
        {
            "inputs": [
                {
                    "internalType": "address",
                    "name": "titleAddress",
                    "type": "address"
                },
                {
                    "internalType": "uint256",
                    "name": "tokenId",
                    "type": "uint256"
                },
                {
                    "internalType": "uint256",
                    "name": "newPrice",
                    "type": "uint256"
                }
            ],
            "name": "updateListings",
            "outputs": [],
            "stateMutability": "nonpayable",
            "type": "function"
        },
        {
            "inputs": [],
            "name": "withDrawProceeds",
            "outputs": [],
            "stateMutability": "nonpayable",
            "type": "function"
        }
    ],
    "transactionHash": "0xe888dc9aa1c8fec74db4f4e4c2196f99f5947535171f2503e90784083444aad7",
    "args": [],
    "numDeployments": 1,
    "solcInputHash": "52fcdc4e8d39c2e4fb340d13e68e0eec",
    "bytecode": "0x608060405234801561001057600080fd5b506001600081905550611743806100286000396000f3fe6080604052600436106100705760003560e01c80638c8f8d861161004e5780638c8f8d8614610118578063b2ddee0614610134578063c6890de51461015d578063f1692abd1461017457610070565b806310447fd51461007557806330cfeda91461009e57806388700d1c146100db575b600080fd5b34801561008157600080fd5b5061009c600480360381019061009791906113cb565b61019d565b005b3480156100aa57600080fd5b506100c560048036038101906100c09190611331565b61046e565b6040516100d291906115b6565b60405180910390f35b3480156100e757600080fd5b5061010260048036038101906100fd919061138b565b6104b7565b60405161010f919061159b565b60405180910390f35b610132600480360381019061012d919061138b565b610582565b005b34801561014057600080fd5b5061015b6004803603810190610156919061138b565b6109f1565b005b34801561016957600080fd5b50610172610ce0565b005b34801561018057600080fd5b5061019b600480360381019061019691906113cb565b610e4a565b005b82826000600160008473ffffffffffffffffffffffffffffffffffffffff1673ffffffffffffffffffffffffffffffffffffffff1681526020019081526020016000206000838152602001908152602001600020604051806040016040529081600082015481526020016001820160009054906101000a900473ffffffffffffffffffffffffffffffffffffffff1673ffffffffffffffffffffffffffffffffffffffff1673ffffffffffffffffffffffffffffffffffffffff1681525050905060008160000151116102a95782826040517f6831488c0000000000000000000000000000000000000000000000000000000081526004016102a092919061151b565b60405180910390fd5b858533600083905060008173ffffffffffffffffffffffffffffffffffffffff16636352211e856040518263ffffffff1660e01b81526004016102ec91906115b6565b60206040518083038186803b15801561030457600080fd5b505afa158015610318573d6000803e3d6000fd5b505050506040513d601f19601f8201168201806040525081019061033c919061135e565b90508073ffffffffffffffffffffffffffffffffffffffff168373ffffffffffffffffffffffffffffffffffffffff16146103a3576040517f30cd747100000000000000000000000000000000000000000000000000000000815260040160405180910390fd5b88600160008d73ffffffffffffffffffffffffffffffffffffffff1673ffffffffffffffffffffffffffffffffffffffff16815260200190815260200160002060008c815260200190815260200160002060000181905550898b73ffffffffffffffffffffffffffffffffffffffff163373ffffffffffffffffffffffffffffffffffffffff167f147197129e6f9323a814be37870a6e8ad27373131e7581c06f69c61a2f656a8c8c60405161045991906115b6565b60405180910390a45050505050505050505050565b6000600260008373ffffffffffffffffffffffffffffffffffffffff1673ffffffffffffffffffffffffffffffffffffffff168152602001908152602001600020549050919050565b6104bf6112c2565b600160008473ffffffffffffffffffffffffffffffffffffffff1673ffffffffffffffffffffffffffffffffffffffff1681526020019081526020016000206000838152602001908152602001600020604051806040016040529081600082015481526020016001820160009054906101000a900473ffffffffffffffffffffffffffffffffffffffff1673ffffffffffffffffffffffffffffffffffffffff1673ffffffffffffffffffffffffffffffffffffffff1681525050905092915050565b600260005414156105c8576040517f08c379a00000000000000000000000000000000000000000000000000000000081526004016105bf9061157b565b60405180910390fd5b600260008190555081816000600160008473ffffffffffffffffffffffffffffffffffffffff1673ffffffffffffffffffffffffffffffffffffffff1681526020019081526020016000206000838152602001908152602001600020604051806040016040529081600082015481526020016001820160009054906101000a900473ffffffffffffffffffffffffffffffffffffffff1673ffffffffffffffffffffffffffffffffffffffff1673ffffffffffffffffffffffffffffffffffffffff1681525050905060008160000151116106dc5782826040517f6831488c0000000000000000000000000000000000000000000000000000000081526004016106d392919061151b565b60405180910390fd5b6000600160008773ffffffffffffffffffffffffffffffffffffffff1673ffffffffffffffffffffffffffffffffffffffff1681526020019081526020016000206000868152602001908152602001600020604051806040016040529081600082015481526020016001820160009054906101000a900473ffffffffffffffffffffffffffffffffffffffff1673ffffffffffffffffffffffffffffffffffffffff1673ffffffffffffffffffffffffffffffffffffffff1681525050905080600001513410156107ec57858582600001516040517f7c9345650000000000000000000000000000000000000000000000000000000081526004016107e393929190611544565b60405180910390fd5b3460026000836020015173ffffffffffffffffffffffffffffffffffffffff1673ffffffffffffffffffffffffffffffffffffffff1681526020019081526020016000205461083b91906115ed565b60026000836020015173ffffffffffffffffffffffffffffffffffffffff1673ffffffffffffffffffffffffffffffffffffffff16815260200190815260200160002081905550600160008773ffffffffffffffffffffffffffffffffffffffff1673ffffffffffffffffffffffffffffffffffffffff16815260200190815260200160002060008681526020019081526020016000206000808201600090556001820160006101000a81549073ffffffffffffffffffffffffffffffffffffffff021916905550508573ffffffffffffffffffffffffffffffffffffffff166342842e0e826020015133886040518463ffffffff1660e01b8152600401610945939291906114e4565b600060405180830381600087803b15801561095f57600080fd5b505af1158015610973573d6000803e3d6000fd5b50505050848673ffffffffffffffffffffffffffffffffffffffff163373ffffffffffffffffffffffffffffffffffffffff167f8e66f7757ead6b6a959955444362f0886b918ff4cfff19fbc0bede65489cf80784600001516040516109d991906115b6565b60405180910390a45050505060016000819055505050565b818133600083905060008173ffffffffffffffffffffffffffffffffffffffff16636352211e856040518263ffffffff1660e01b8152600401610a3491906115b6565b60206040518083038186803b158015610a4c57600080fd5b505afa158015610a60573d6000803e3d6000fd5b505050506040513d601f19601f82011682018060405250810190610a84919061135e565b90508073ffffffffffffffffffffffffffffffffffffffff168373ffffffffffffffffffffffffffffffffffffffff1614610aeb576040517f30cd747100000000000000000000000000000000000000000000000000000000815260040160405180910390fd5b86866000600160008473ffffffffffffffffffffffffffffffffffffffff1673ffffffffffffffffffffffffffffffffffffffff1681526020019081526020016000206000838152602001908152602001600020604051806040016040529081600082015481526020016001820160009054906101000a900473ffffffffffffffffffffffffffffffffffffffff1673ffffffffffffffffffffffffffffffffffffffff1673ffffffffffffffffffffffffffffffffffffffff168152505090506000816000015111610bf75782826040517f6831488c000000000000000000000000000000000000000000000000000000008152600401610bee92919061151b565b60405180910390fd5b600160008b73ffffffffffffffffffffffffffffffffffffffff1673ffffffffffffffffffffffffffffffffffffffff16815260200190815260200160002060008a81526020019081526020016000206000808201600090556001820160006101000a81549073ffffffffffffffffffffffffffffffffffffffff02191690555050888a73ffffffffffffffffffffffffffffffffffffffff163373ffffffffffffffffffffffffffffffffffffffff167fc113d84ae1690786f33efac496061471f6284fddb3123fe300557363f984406560405160405180910390a450505050505050505050565b6000600260003373ffffffffffffffffffffffffffffffffffffffff1673ffffffffffffffffffffffffffffffffffffffff16815260200190815260200160002054905060008111610d5e576040517fc4d8fa8700000000000000000000000000000000000000000000000000000000815260040160405180910390fd5b6000600260003373ffffffffffffffffffffffffffffffffffffffff1673ffffffffffffffffffffffffffffffffffffffff1681526020019081526020016000208190555060003373ffffffffffffffffffffffffffffffffffffffff1682604051610dc9906114cf565b60006040518083038185875af1925050503d8060008114610e06576040519150601f19603f3d011682016040523d82523d6000602084013e610e0b565b606091505b5050905080610e46576040517f90b8ec1800000000000000000000000000000000000000000000000000000000815260040160405180910390fd5b5050565b8282336000600160008573ffffffffffffffffffffffffffffffffffffffff1673ffffffffffffffffffffffffffffffffffffffff1681526020019081526020016000206000848152602001908152602001600020604051806040016040529081600082015481526020016001820160009054906101000a900473ffffffffffffffffffffffffffffffffffffffff1673ffffffffffffffffffffffffffffffffffffffff1673ffffffffffffffffffffffffffffffffffffffff16815250509050600081600001511115610f585783836040517f4a5568d5000000000000000000000000000000000000000000000000000000008152600401610f4f92919061151b565b60405180910390fd5b868633600083905060008173ffffffffffffffffffffffffffffffffffffffff16636352211e856040518263ffffffff1660e01b8152600401610f9b91906115b6565b60206040518083038186803b158015610fb357600080fd5b505afa158015610fc7573d6000803e3d6000fd5b505050506040513d601f19601f82011682018060405250810190610feb919061135e565b90508073ffffffffffffffffffffffffffffffffffffffff168373ffffffffffffffffffffffffffffffffffffffff1614611052576040517f30cd747100000000000000000000000000000000000000000000000000000000815260040160405180910390fd5b60008a1161108c576040517fe1abbfc500000000000000000000000000000000000000000000000000000000815260040160405180910390fd5b60008c90503073ffffffffffffffffffffffffffffffffffffffff168173ffffffffffffffffffffffffffffffffffffffff1663081812fc8e6040518263ffffffff1660e01b81526004016110e191906115b6565b60206040518083038186803b1580156110f957600080fd5b505afa15801561110d573d6000803e3d6000fd5b505050506040513d601f19601f82011682018060405250810190611131919061135e565b73ffffffffffffffffffffffffffffffffffffffff161461117e576040517f123473e600000000000000000000000000000000000000000000000000000000815260040160405180910390fd5b60405180604001604052808c81526020013373ffffffffffffffffffffffffffffffffffffffff16815250600160008f73ffffffffffffffffffffffffffffffffffffffff1673ffffffffffffffffffffffffffffffffffffffff16815260200190815260200160002060008e81526020019081526020016000206000820151816000015560208201518160010160006101000a81548173ffffffffffffffffffffffffffffffffffffffff021916908373ffffffffffffffffffffffffffffffffffffffff1602179055509050508b8d73ffffffffffffffffffffffffffffffffffffffff163373ffffffffffffffffffffffffffffffffffffffff167f147197129e6f9323a814be37870a6e8ad27373131e7581c06f69c61a2f656a8c8e6040516112ab91906115b6565b60405180910390a450505050505050505050505050565b604051806040016040528060008152602001600073ffffffffffffffffffffffffffffffffffffffff1681525090565b600081359050611301816116df565b92915050565b600081519050611316816116df565b92915050565b60008135905061132b816116f6565b92915050565b600060208284031215611347576113466116ae565b5b6000611355848285016112f2565b91505092915050565b600060208284031215611374576113736116ae565b5b600061138284828501611307565b91505092915050565b600080604083850312156113a2576113a16116ae565b5b60006113b0858286016112f2565b92505060206113c18582860161131c565b9150509250929050565b6000806000606084860312156113e4576113e36116ae565b5b60006113f2868287016112f2565b93505060206114038682870161131c565b92505060406114148682870161131c565b9150509250925092565b61142781611643565b82525050565b61143681611643565b82525050565b60006114496000836115d1565b9150611454826116b3565b600082019050919050565b600061146c601f836115dc565b9150611477826116b6565b602082019050919050565b60408201600082015161149860008501826114b1565b5060208201516114ab602085018261141e565b50505050565b6114ba81611675565b82525050565b6114c981611675565b82525050565b60006114da8261143c565b9150819050919050565b60006060820190506114f9600083018661142d565b611506602083018561142d565b61151360408301846114c0565b949350505050565b6000604082019050611530600083018561142d565b61153d60208301846114c0565b9392505050565b6000606082019050611559600083018661142d565b61156660208301856114c0565b61157360408301846114c0565b949350505050565b600060208201905081810360008301526115948161145f565b9050919050565b60006040820190506115b06000830184611482565b92915050565b60006020820190506115cb60008301846114c0565b92915050565b600081905092915050565b600082825260208201905092915050565b60006115f882611675565b915061160383611675565b9250827fffffffffffffffffffffffffffffffffffffffffffffffffffffffffffffffff038211156116385761163761167f565b5b828201905092915050565b600061164e82611655565b9050919050565b600073ffffffffffffffffffffffffffffffffffffffff82169050919050565b6000819050919050565b7f4e487b7100000000000000000000000000000000000000000000000000000000600052601160045260246000fd5b600080fd5b50565b7f5265656e7472616e637947756172643a207265656e7472616e742063616c6c00600082015250565b6116e881611643565b81146116f357600080fd5b50565b6116ff81611675565b811461170a57600080fd5b5056fea26469706673582212206c9fbcfbee1aee39e2f30cd1fae6addb5205b0afbc6cfaa09cd7e084dc1903e764736f6c63430008070033",
    "devdoc": {
        "kind": "dev",
        "methods": {},
        "version": 1
    },
    "userdoc": {
        "kind": "user",
        "methods": {},
        "version": 1
    },
    "storageLayout": {
        "storage": [
            {
                "astId": 10,
                "contract": "contracts/TitleRegistry.sol:TitleRegistry",
                "label": "_status",
                "offset": 0,
                "slot": "0",
                "type": "t_uint256"
            },
            {
                "astId": 1722,
                "contract": "contracts/TitleRegistry.sol:TitleRegistry",
                "label": "s_listings",
                "offset": 0,
                "slot": "1",
                "type": "t_mapping(t_address,t_mapping(t_uint256,t_struct(Listing)1687_storage))"
            },
            {
                "astId": 1726,
                "contract": "contracts/TitleRegistry.sol:TitleRegistry",
                "label": "s_proceeds",
                "offset": 0,
                "slot": "2",
                "type": "t_mapping(t_address,t_uint256)"
            }
        ],
        "types": {
            "t_address": {
                "encoding": "inplace",
                "label": "address",
                "numberOfBytes": "20"
            },
            "t_mapping(t_address,t_mapping(t_uint256,t_struct(Listing)1687_storage))": {
                "encoding": "mapping",
                "key": "t_address",
                "label": "mapping(address => mapping(uint256 => struct TitleRegistry.Listing))",
                "numberOfBytes": "32",
                "value": "t_mapping(t_uint256,t_struct(Listing)1687_storage)"
            },
            "t_mapping(t_address,t_uint256)": {
                "encoding": "mapping",
                "key": "t_address",
                "label": "mapping(address => uint256)",
                "numberOfBytes": "32",
                "value": "t_uint256"
            },
            "t_mapping(t_uint256,t_struct(Listing)1687_storage)": {
                "encoding": "mapping",
                "key": "t_uint256",
                "label": "mapping(uint256 => struct TitleRegistry.Listing)",
                "numberOfBytes": "32",
                "value": "t_struct(Listing)1687_storage"
            },
            "t_struct(Listing)1687_storage": {
                "encoding": "inplace",
                "label": "struct TitleRegistry.Listing",
                "members": [
                    {
                        "astId": 1684,
                        "contract": "contracts/TitleRegistry.sol:TitleRegistry",
                        "label": "price",
                        "offset": 0,
                        "slot": "0",
                        "type": "t_uint256"
                    },
                    {
                        "astId": 1686,
                        "contract": "contracts/TitleRegistry.sol:TitleRegistry",
                        "label": "seller",
                        "offset": 0,
                        "slot": "1",
                        "type": "t_address"
                    }
                ],
                "numberOfBytes": "64"
            },
            "t_uint256": {
                "encoding": "inplace",
                "label": "uint256",
                "numberOfBytes": "32"
            }
        }
    }
}